{
  "_format": "hh-sol-artifact-1",
  "contractName": "C2NAirdrop",
  "sourceName": "contracts/C2NAirdrop.sol",
  "abi": [
    {
      "inputs": [
        {
          "internalType": "address",
          "name": "_airdropToken",
          "type": "address"
        }
      ],
      "stateMutability": "nonpayable",
      "type": "constructor"
    },
    {
      "anonymous": false,
      "inputs": [
        {
          "indexed": true,
          "internalType": "address",
          "name": "beneficiary",
          "type": "address"
        }
      ],
      "name": "TokenAirdroped",
      "type": "event"
    },
    {
      "inputs": [],
      "name": "TOKENS_PER_CLAIM",
      "outputs": [
        {
          "internalType": "uint256",
          "name": "",
          "type": "uint256"
        }
      ],
      "stateMutability": "view",
      "type": "function"
    },
    {
      "inputs": [],
      "name": "airdropToken",
      "outputs": [
        {
          "internalType": "contract IERC20",
          "name": "",
          "type": "address"
        }
      ],
      "stateMutability": "view",
      "type": "function"
    },
    {
      "inputs": [],
      "name": "totalTokenWithdrawn",
      "outputs": [
        {
          "internalType": "uint256",
          "name": "",
          "type": "uint256"
        }
      ],
      "stateMutability": "view",
      "type": "function"
    },
    {
      "inputs": [],
      "name": "withdrawTokens",
      "outputs": [],
      "stateMutability": "nonpayable",
      "type": "function"
    }
  ],
  "bytecode": "0x608060405234801561001057600080fd5b5060405161092d38038061092d8339818101604052810190610032919061014a565b600073ffffffffffffffffffffffffffffffffffffffff168173ffffffffffffffffffffffffffffffffffffffff16036100a1576040517f08c379a0000000000000000000000000000000000000000000000000000000008152600401610098906101d4565b60405180910390fd5b806000806101000a81548173ffffffffffffffffffffffffffffffffffffffff021916908373ffffffffffffffffffffffffffffffffffffffff160217905550506101f4565b600080fd5b600073ffffffffffffffffffffffffffffffffffffffff82169050919050565b6000610117826100ec565b9050919050565b6101278161010c565b811461013257600080fd5b50565b6000815190506101448161011e565b92915050565b6000602082840312156101605761015f6100e7565b5b600061016e84828501610135565b91505092915050565b600082825260208201905092915050565b7f41697264726f703a20496e76616c696420746f6b656e20616464726573730000600082015250565b60006101be601e83610177565b91506101c982610188565b602082019050919050565b600060208201905081810360008301526101ed816101b1565b9050919050565b61072a806102036000396000f3fe608060405234801561001057600080fd5b506004361061004c5760003560e01c80634d06068a146100515780638d8f2adb1461006f578063939972bc14610079578063ccfff67914610097575b600080fd5b6100596100b5565b6040516100669190610413565b60405180910390f35b6100776100d9565b005b610081610381565b60405161008e9190610447565b60405180910390f35b61009f610387565b6040516100ac9190610447565b60405180910390f35b60008054906101000a900473ffffffffffffffffffffffffffffffffffffffff1681565b60003390503273ffffffffffffffffffffffffffffffffffffffff168173ffffffffffffffffffffffffffffffffffffffff161461014c576040517f08c379a0000000000000000000000000000000000000000000000000000000008152600401610143906104e5565b60405180910390fd5b600260008273ffffffffffffffffffffffffffffffffffffffff1673ffffffffffffffffffffffffffffffffffffffff16815260200190815260200160002060009054906101000a900460ff16156101d9576040517f08c379a00000000000000000000000000000000000000000000000000000000081526004016101d090610551565b60405180910390fd5b6001600260008373ffffffffffffffffffffffffffffffffffffffff1673ffffffffffffffffffffffffffffffffffffffff16815260200190815260200160002060006101000a81548160ff02191690831515021790555060008060009054906101000a900473ffffffffffffffffffffffffffffffffffffffff1673ffffffffffffffffffffffffffffffffffffffff1663a9059cbb8368056bc75e2d631000006040518363ffffffff1660e01b8152600401610298929190610592565b6020604051808303816000875af11580156102b7573d6000803e3d6000fd5b505050506040513d601f19601f820116820180604052508101906102db91906105f8565b90508061031d576040517f08c379a000000000000000000000000000000000000000000000000000000000815260040161031490610671565b60405180910390fd5b68056bc75e2d6310000060015461033491906106c0565b6001819055508173ffffffffffffffffffffffffffffffffffffffff167f1e2507d45b03715113575cfb5cf3e8fa71b80708ea26439e1097f444a51cbd8d60405160405180910390a25050565b60015481565b68056bc75e2d6310000081565b600073ffffffffffffffffffffffffffffffffffffffff82169050919050565b6000819050919050565b60006103d96103d46103cf84610394565b6103b4565b610394565b9050919050565b60006103eb826103be565b9050919050565b60006103fd826103e0565b9050919050565b61040d816103f2565b82525050565b60006020820190506104286000830184610404565b92915050565b6000819050919050565b6104418161042e565b82525050565b600060208201905061045c6000830184610438565b92915050565b600082825260208201905092915050565b7f41697264726f703a20726571756972652074686174206d65737361676520736560008201527f6e6465722069732074782d6f726967696e000000000000000000000000000000602082015250565b60006104cf603183610462565b91506104da82610473565b604082019050919050565b600060208201905081810360008301526104fe816104c2565b9050919050565b7f41697264726f703a20416c726561647920636c61696d65640000000000000000600082015250565b600061053b601883610462565b915061054682610505565b602082019050919050565b6000602082019050818103600083015261056a8161052e565b9050919050565b600061057c82610394565b9050919050565b61058c81610571565b82525050565b60006040820190506105a76000830185610583565b6105b46020830184610438565b9392505050565b600080fd5b60008115159050919050565b6105d5816105c0565b81146105e057600080fd5b50565b6000815190506105f2816105cc565b92915050565b60006020828403121561060e5761060d6105bb565b5b600061061c848285016105e3565b91505092915050565b7f41697264726f703a2061697264726f70206661696c6564000000000000000000600082015250565b600061065b601783610462565b915061066682610625565b602082019050919050565b6000602082019050818103600083015261068a8161064e565b9050919050565b7f4e487b7100000000000000000000000000000000000000000000000000000000600052601160045260246000fd5b60006106cb8261042e565b91506106d68361042e565b92508282019050808211156106ee576106ed610691565b5b9291505056fea264697066735822122096e2a5633e9a04c6effb7a9d48fd7850a466d3b1850c528699035bff9804e95e64736f6c63430008180033",
  "linkReferences": {},
  "deployedLinkReferences": {}
}