{
  "_format": "hh-sol-artifact-1",
  "contractName": "C2NFarming",
  "sourceName": "contracts/farming/C2NFarming.sol",
  "abi": [
    {
      "inputs": [
        {
          "internalType": "contract IERC20",
          "name": "_erc20Token",
          "type": "address"
        },
        {
          "internalType": "uint256",
          "name": "_rewardPerSecond",
          "type": "uint256"
        },
        {
          "internalType": "uint256",
          "name": "_startTimestamp",
          "type": "uint256"
        }
      ],
      "stateMutability": "nonpayable",
      "type": "constructor"
    },
    {
      "inputs": [
        {
          "internalType": "address",
          "name": "target",
          "type": "address"
        }
      ],
      "name": "AddressEmptyCode",
      "type": "error"
    },
    {
      "inputs": [
        {
          "internalType": "address",
          "name": "account",
          "type": "address"
        }
      ],
      "name": "AddressInsufficientBalance",
      "type": "error"
    },
    {
      "inputs": [],
      "name": "FailedInnerCall",
      "type": "error"
    },
    {
      "inputs": [
        {
          "internalType": "address",
          "name": "owner",
          "type": "address"
        }
      ],
      "name": "OwnableInvalidOwner",
      "type": "error"
    },
    {
      "inputs": [
        {
          "internalType": "address",
          "name": "account",
          "type": "address"
        }
      ],
      "name": "OwnableUnauthorizedAccount",
      "type": "error"
    },
    {
      "inputs": [
        {
          "internalType": "address",
          "name": "token",
          "type": "address"
        }
      ],
      "name": "SafeERC20FailedOperation",
      "type": "error"
    },
    {
      "anonymous": false,
      "inputs": [
        {
          "indexed": true,
          "internalType": "address",
          "name": "user",
          "type": "address"
        },
        {
          "indexed": false,
          "internalType": "uint256",
          "name": "poolId",
          "type": "uint256"
        },
        {
          "indexed": false,
          "internalType": "uint256",
          "name": "amount",
          "type": "uint256"
        }
      ],
      "name": "Deposit",
      "type": "event"
    },
    {
      "anonymous": false,
      "inputs": [
        {
          "indexed": true,
          "internalType": "address",
          "name": "user",
          "type": "address"
        },
        {
          "indexed": false,
          "internalType": "uint256",
          "name": "poolId",
          "type": "uint256"
        },
        {
          "indexed": false,
          "internalType": "uint256",
          "name": "amount",
          "type": "uint256"
        }
      ],
      "name": "EmergencyWithdraw",
      "type": "event"
    },
    {
      "anonymous": false,
      "inputs": [
        {
          "indexed": true,
          "internalType": "address",
          "name": "previousOwner",
          "type": "address"
        },
        {
          "indexed": true,
          "internalType": "address",
          "name": "newOwner",
          "type": "address"
        }
      ],
      "name": "OwnershipTransferred",
      "type": "event"
    },
    {
      "anonymous": false,
      "inputs": [
        {
          "indexed": true,
          "internalType": "address",
          "name": "user",
          "type": "address"
        },
        {
          "indexed": false,
          "internalType": "uint256",
          "name": "poolId",
          "type": "uint256"
        },
        {
          "indexed": false,
          "internalType": "uint256",
          "name": "amount",
          "type": "uint256"
        }
      ],
      "name": "Withdraw",
      "type": "event"
    },
    {
      "inputs": [
        {
          "internalType": "contract IERC20",
          "name": "_lpToken",
          "type": "address"
        },
        {
          "internalType": "uint256",
          "name": "_allocationPoint",
          "type": "uint256"
        },
        {
          "internalType": "bool",
          "name": "_withUpdate",
          "type": "bool"
        }
      ],
      "name": "add",
      "outputs": [],
      "stateMutability": "nonpayable",
      "type": "function"
    },
    {
      "inputs": [
        {
          "internalType": "uint256",
          "name": "_pid",
          "type": "uint256"
        },
        {
          "internalType": "uint256",
          "name": "_amount",
          "type": "uint256"
        }
      ],
      "name": "deposit",
      "outputs": [],
      "stateMutability": "nonpayable",
      "type": "function"
    },
    {
      "inputs": [
        {
          "internalType": "uint256",
          "name": "_pid",
          "type": "uint256"
        },
        {
          "internalType": "address",
          "name": "_user",
          "type": "address"
        }
      ],
      "name": "deposited",
      "outputs": [
        {
          "internalType": "uint256",
          "name": "",
          "type": "uint256"
        }
      ],
      "stateMutability": "view",
      "type": "function"
    },
    {
      "inputs": [
        {
          "internalType": "uint256",
          "name": "_pid",
          "type": "uint256"
        }
      ],
      "name": "emergencyWithdraw",
      "outputs": [],
      "stateMutability": "nonpayable",
      "type": "function"
    },
    {
      "inputs": [],
      "name": "endTimestamp",
      "outputs": [
        {
          "internalType": "uint256",
          "name": "",
          "type": "uint256"
        }
      ],
      "stateMutability": "view",
      "type": "function"
    },
    {
      "inputs": [],
      "name": "erc20Token",
      "outputs": [
        {
          "internalType": "contract IERC20",
          "name": "",
          "type": "address"
        }
      ],
      "stateMutability": "view",
      "type": "function"
    },
    {
      "inputs": [
        {
          "internalType": "uint256",
          "name": "_amount",
          "type": "uint256"
        }
      ],
      "name": "fund",
      "outputs": [],
      "stateMutability": "nonpayable",
      "type": "function"
    },
    {
      "inputs": [],
      "name": "massUpdatePools",
      "outputs": [],
      "stateMutability": "nonpayable",
      "type": "function"
    },
    {
      "inputs": [],
      "name": "owner",
      "outputs": [
        {
          "internalType": "address",
          "name": "",
          "type": "address"
        }
      ],
      "stateMutability": "view",
      "type": "function"
    },
    {
      "inputs": [],
      "name": "paidOut",
      "outputs": [
        {
          "internalType": "uint256",
          "name": "",
          "type": "uint256"
        }
      ],
      "stateMutability": "view",
      "type": "function"
    },
    {
      "inputs": [
        {
          "internalType": "uint256",
          "name": "_pid",
          "type": "uint256"
        }
      ],
      "name": "pending",
      "outputs": [
        {
          "internalType": "uint256",
          "name": "",
          "type": "uint256"
        }
      ],
      "stateMutability": "view",
      "type": "function"
    },
    {
      "inputs": [
        {
          "internalType": "uint256",
          "name": "",
          "type": "uint256"
        }
      ],
      "name": "poolInfo",
      "outputs": [
        {
          "internalType": "contract IERC20",
          "name": "lpToken",
          "type": "address"
        },
        {
          "internalType": "uint256",
          "name": "allocationPoint",
          "type": "uint256"
        },
        {
          "internalType": "uint256",
          "name": "totalDeposits",
          "type": "uint256"
        },
        {
          "internalType": "uint256",
          "name": "lastRewardTimestamp",
          "type": "uint256"
        },
        {
          "internalType": "uint256",
          "name": "accumulatedERC20PerShare",
          "type": "uint256"
        }
      ],
      "stateMutability": "view",
      "type": "function"
    },
    {
      "inputs": [],
      "name": "poolLength",
      "outputs": [
        {
          "internalType": "uint256",
          "name": "",
          "type": "uint256"
        }
      ],
      "stateMutability": "view",
      "type": "function"
    },
    {
      "inputs": [],
      "name": "renounceOwnership",
      "outputs": [],
      "stateMutability": "nonpayable",
      "type": "function"
    },
    {
      "inputs": [],
      "name": "rewardPerSecond",
      "outputs": [
        {
          "internalType": "uint256",
          "name": "",
          "type": "uint256"
        }
      ],
      "stateMutability": "view",
      "type": "function"
    },
    {
      "inputs": [
        {
          "internalType": "uint256",
          "name": "_pid",
          "type": "uint256"
        },
        {
          "internalType": "uint256",
          "name": "_allocationPoint",
          "type": "uint256"
        },
        {
          "internalType": "bool",
          "name": "_withUpdate",
          "type": "bool"
        }
      ],
      "name": "set",
      "outputs": [],
      "stateMutability": "nonpayable",
      "type": "function"
    },
    {
      "inputs": [],
      "name": "startTimestamp",
      "outputs": [
        {
          "internalType": "uint256",
          "name": "",
          "type": "uint256"
        }
      ],
      "stateMutability": "view",
      "type": "function"
    },
    {
      "inputs": [],
      "name": "totalAllocationPoint",
      "outputs": [
        {
          "internalType": "uint256",
          "name": "",
          "type": "uint256"
        }
      ],
      "stateMutability": "view",
      "type": "function"
    },
    {
      "inputs": [],
      "name": "totalPending",
      "outputs": [
        {
          "internalType": "uint256",
          "name": "",
          "type": "uint256"
        }
      ],
      "stateMutability": "view",
      "type": "function"
    },
    {
      "inputs": [],
      "name": "totalRewards",
      "outputs": [
        {
          "internalType": "uint256",
          "name": "",
          "type": "uint256"
        }
      ],
      "stateMutability": "view",
      "type": "function"
    },
    {
      "inputs": [
        {
          "internalType": "address",
          "name": "newOwner",
          "type": "address"
        }
      ],
      "name": "transferOwnership",
      "outputs": [],
      "stateMutability": "nonpayable",
      "type": "function"
    },
    {
      "inputs": [
        {
          "internalType": "uint256",
          "name": "_pid",
          "type": "uint256"
        }
      ],
      "name": "updatePool",
      "outputs": [],
      "stateMutability": "nonpayable",
      "type": "function"
    },
    {
      "inputs": [
        {
          "internalType": "uint256",
          "name": "pid",
          "type": "uint256"
        },
        {
          "internalType": "address",
          "name": "",
          "type": "address"
        }
      ],
      "name": "userInfo",
      "outputs": [
        {
          "internalType": "uint256",
          "name": "amount",
          "type": "uint256"
        },
        {
          "internalType": "uint256",
          "name": "rewardDebt",
          "type": "uint256"
        }
      ],
      "stateMutability": "view",
      "type": "function"
    },
    {
      "inputs": [
        {
          "internalType": "uint256",
          "name": "_pid",
          "type": "uint256"
        },
        {
          "internalType": "uint256",
          "name": "_amount",
          "type": "uint256"
        }
      ],
      "name": "withdraw",
      "outputs": [],
      "stateMutability": "nonpayable",
      "type": "function"
    }
  ],
  "bytecode": "0x60806040523480156200001157600080fd5b5060405162002121380380620021218339818101604052810190620000379190620002b2565b620000476200012d60201b60201c565b600073ffffffffffffffffffffffffffffffffffffffff168173ffffffffffffffffffffffffffffffffffffffff1603620000bc5760006040517f1e4fbdf7000000000000000000000000000000000000000000000000000000008152600401620000b391906200031f565b60405180910390fd5b620000cd816200013560201b60201c565b5082600160006101000a81548173ffffffffffffffffffffffffffffffffffffffff021916908373ffffffffffffffffffffffffffffffffffffffff1602179055508160058190555080600681905550806007819055505050506200033c565b600033905090565b60008060009054906101000a900473ffffffffffffffffffffffffffffffffffffffff169050816000806101000a81548173ffffffffffffffffffffffffffffffffffffffff021916908373ffffffffffffffffffffffffffffffffffffffff1602179055508173ffffffffffffffffffffffffffffffffffffffff168173ffffffffffffffffffffffffffffffffffffffff167f8be0079c531659141344cd1fd0a4f28419497f9722a3daafe3b4186f6b6457e060405160405180910390a35050565b600080fd5b600073ffffffffffffffffffffffffffffffffffffffff82169050919050565b60006200022b82620001fe565b9050919050565b60006200023f826200021e565b9050919050565b620002518162000232565b81146200025d57600080fd5b50565b600081519050620002718162000246565b92915050565b6000819050919050565b6200028c8162000277565b81146200029857600080fd5b50565b600081519050620002ac8162000281565b92915050565b600080600060608486031215620002ce57620002cd620001f9565b5b6000620002de8682870162000260565b9350506020620002f1868287016200029b565b925050604062000304868287016200029b565b9150509250925092565b62000319816200021e565b82525050565b60006020820190506200033660008301846200030e565b92915050565b611dd5806200034c6000396000f3fe608060405234801561001057600080fd5b50600436106101585760003560e01c80638a13eea7116100c3578063a85adeab1161007c578063a85adeab14610382578063af6e6238146103a0578063ca1d209d146103d0578063e2bbb158146103ec578063e6fd48bc14610408578063f2fde38b1461042657610158565b80638a13eea7146102a95780638da5cb5b146102c75780638f10369a146102e557806393f1a40b14610303578063a1a6690f14610334578063a23831061461035257610158565b806351eb05a61161011557806351eb05a6146102235780635312ea8e1461023f5780635c76ca2d1461025b578063630b5ba11461027957806364482f7914610283578063715018a61461029f57610158565b8063081e3eda1461015d5780630dec23121461017b5780630e15561a146101975780631526fe27146101b55780633f90916a146101e9578063441a3e7014610207575b600080fd5b610165610442565b6040516101729190611618565b60405180910390f35b6101956004803603810190610190919061170c565b61044f565b005b61019f61056c565b6040516101ac9190611618565b60405180910390f35b6101cf60048036038101906101ca919061175f565b610572565b6040516101e09594939291906117eb565b60405180910390f35b6101f16105d8565b6040516101fe9190611618565b60405180910390f35b610221600480360381019061021c919061183e565b610632565b005b61023d6004803603810190610238919061175f565b610855565b005b6102596004803603810190610254919061175f565b610957565b005b610263610a59565b6040516102709190611618565b60405180910390f35b610281610a5f565b005b61029d6004803603810190610298919061187e565b610a8e565b005b6102a7610b18565b005b6102b1610b2c565b6040516102be91906118d1565b60405180910390f35b6102cf610b52565b6040516102dc91906118fb565b60405180910390f35b6102ed610b7b565b6040516102fa9190611618565b60405180910390f35b61031d60048036038101906103189190611942565b610b81565b60405161032b929190611982565b60405180910390f35b61033c610bb2565b6040516103499190611618565b60405180910390f35b61036c60048036038101906103679190611942565b610bb8565b6040516103799190611618565b60405180910390f35b61038a610c16565b6040516103979190611618565b60405180910390f35b6103ba60048036038101906103b5919061175f565b610c1c565b6040516103c79190611618565b60405180910390f35b6103ea60048036038101906103e5919061175f565b610db2565b005b6104066004803603810190610401919061183e565b610e82565b005b61041061106c565b60405161041d9190611618565b60405180910390f35b610440600480360381019061043b91906119ab565b611072565b005b6000600880549050905090565b6104576110f8565b801561046657610465610a5f565b5b816004546104749190611a07565b60048190555060086040518060a001604052808573ffffffffffffffffffffffffffffffffffffffff1681526020018481526020016000815260200160065442116104c1576006546104c3565b425b81526020016000815250908060018154018082558091505060019003906000526020600020906005020160009091909190915060008201518160000160006101000a81548173ffffffffffffffffffffffffffffffffffffffff021916908373ffffffffffffffffffffffffffffffffffffffff160217905550602082015181600101556040820151816002015560608201518160030155608082015181600401555050505050565b60025481565b6008818154811061058257600080fd5b90600052602060002090600502016000915090508060000160009054906101000a900473ffffffffffffffffffffffffffffffffffffffff16908060010154908060020154908060030154908060040154905085565b600060065442116105ec576000905061062f565b600060075442106105ff57600754610601565b425b9050600354600654826106149190611a3b565b6005546106219190611a6f565b61062b9190611a3b565b9150505b90565b60006008838154811061064857610647611ab1565b5b9060005260206000209060050201905060006009600085815260200190815260200160002060003373ffffffffffffffffffffffffffffffffffffffff1673ffffffffffffffffffffffffffffffffffffffff168152602001908152602001600020905082816000015410156106f3576040517f08c379a00000000000000000000000000000000000000000000000000000000081526004016106ea90611b63565b60405180910390fd5b6106fc84610855565b600081600101546ec097ce7bc90715b34b9f1000000000846004015484600001546107279190611a6f565b6107319190611bb2565b61073b9190611a3b565b9050610747338261117f565b8383600201546107579190611a3b565b83600201819055506107b03033838660000160009054906101000a900473ffffffffffffffffffffffffffffffffffffffff1673ffffffffffffffffffffffffffffffffffffffff166111e4909392919063ffffffff16565b8382600001546107c09190611a3b565b82600001819055506ec097ce7bc90715b34b9f1000000000836004015483600001546107ec9190611a6f565b6107f69190611bb2565b82600101819055503373ffffffffffffffffffffffffffffffffffffffff167ff279e6a1f5e320cca91135676d9cb6e44ca8a08c0b88342bcdb1144f6511b5688686604051610846929190611982565b60405180910390a25050505050565b60006008828154811061086b5761086a611ab1565b5b906000526020600020906005020190506000600754421061088e57600754610890565b425b9050816003015481116108a4575050610954565b600082600201549050600081036108c657818360030181905550505050610954565b60008360030154836108d89190611a3b565b905060006004548560010154600554846108f29190611a6f565b6108fc9190611a6f565b6109069190611bb2565b9050826ec097ce7bc90715b34b9f1000000000826109249190611a6f565b61092e9190611bb2565b856004015461093d9190611a07565b856004018190555083856003018190555050505050505b50565b60006008828154811061096d5761096c611ab1565b5b9060005260206000209060050201905060006009600084815260200190815260200160002060003373ffffffffffffffffffffffffffffffffffffffff1673ffffffffffffffffffffffffffffffffffffffff1681526020019081526020016000209050610a243382600001548460000160009054906101000a900473ffffffffffffffffffffffffffffffffffffffff1673ffffffffffffffffffffffffffffffffffffffff166112669092919063ffffffff16565b80600001548260020154610a389190611a3b565b82600201819055506000816000018190555060008160010181905550505050565b60035481565b6000600880549050905060005b81811015610a8a57610a7d81610855565b8080600101915050610a6c565b5050565b610a966110f8565b8015610aa557610aa4610a5f565b5b8160088481548110610aba57610ab9611ab1565b5b906000526020600020906005020160010154600454610ad99190611a3b565b610ae39190611a07565b6004819055508160088481548110610afe57610afd611ab1565b5b906000526020600020906005020160010181905550505050565b610b206110f8565b610b2a60006112e5565b565b600160009054906101000a900473ffffffffffffffffffffffffffffffffffffffff1681565b60008060009054906101000a900473ffffffffffffffffffffffffffffffffffffffff16905090565b60055481565b6009602052816000526040600020602052806000526040600020600091509150508060000154908060010154905082565b60045481565b60006009600084815260200190815260200160002060008373ffffffffffffffffffffffffffffffffffffffff1673ffffffffffffffffffffffffffffffffffffffff16815260200190815260200160002060000154905092915050565b60075481565b60008060088381548110610c3357610c32611ab1565b5b9060005260206000209060050201905060006009600085815260200190815260200160002060003373ffffffffffffffffffffffffffffffffffffffff1673ffffffffffffffffffffffffffffffffffffffff1681526020019081526020016000209050600082600401549050600083600201549050836003015442118015610cbd575060008114155b15610d6e5760006007544210610cd557600754610cd7565b425b90506000600754866003015410610cf057600754610cf6565b85600301545b905060008183610d069190611a3b565b90506000600454886001015460055484610d209190611a6f565b610d2a9190611a6f565b610d349190611bb2565b9050846ec097ce7bc90715b34b9f100000000082610d529190611a6f565b610d5c9190611bb2565b86610d679190611a07565b9550505050505b82600101546ec097ce7bc90715b34b9f1000000000838560000154610d939190611a6f565b610d9d9190611bb2565b610da79190611a3b565b945050505050919050565b6007544210610df6576040517f08c379a0000000000000000000000000000000000000000000000000000000008152600401610ded90611c55565b60405180910390fd5b80600254610e049190611a07565b60028190555060055481610e189190611bb2565b60076000828254610e299190611a07565b92505081905550610e7f333083600160009054906101000a900473ffffffffffffffffffffffffffffffffffffffff1673ffffffffffffffffffffffffffffffffffffffff166111e4909392919063ffffffff16565b50565b600060088381548110610e9857610e97611ab1565b5b9060005260206000209060050201905060006009600085815260200190815260200160002060003373ffffffffffffffffffffffffffffffffffffffff1673ffffffffffffffffffffffffffffffffffffffff1681526020019081526020016000209050610f0584610855565b600081600001541115610f5f57600081600101546ec097ce7bc90715b34b9f100000000084600401548460000154610f3d9190611a6f565b610f479190611bb2565b610f519190611a3b565b9050610f5d338261117f565b505b828260020154610f6f9190611a07565b8260020181905550610fc83330858560000160009054906101000a900473ffffffffffffffffffffffffffffffffffffffff1673ffffffffffffffffffffffffffffffffffffffff166111e4909392919063ffffffff16565b828160000154610fd89190611a07565b81600001819055506ec097ce7bc90715b34b9f1000000000826004015482600001546110049190611a6f565b61100e9190611bb2565b81600101819055503373ffffffffffffffffffffffffffffffffffffffff167f90890809c654f11d6e72a28fa60149770a0d11ec6c92319d6ceb2bb0a4ea1a15858560405161105e929190611982565b60405180910390a250505050565b60065481565b61107a6110f8565b600073ffffffffffffffffffffffffffffffffffffffff168173ffffffffffffffffffffffffffffffffffffffff16036110ec5760006040517f1e4fbdf70000000000000000000000000000000000000000000000000000000081526004016110e391906118fb565b60405180910390fd5b6110f5816112e5565b50565b6111006113a9565b73ffffffffffffffffffffffffffffffffffffffff1661111e610b52565b73ffffffffffffffffffffffffffffffffffffffff161461117d576111416113a9565b6040517f118cdaa700000000000000000000000000000000000000000000000000000000815260040161117491906118fb565b60405180910390fd5b565b6111cc8282600160009054906101000a900473ffffffffffffffffffffffffffffffffffffffff1673ffffffffffffffffffffffffffffffffffffffff166112669092919063ffffffff16565b806003546111da9190611a07565b6003819055505050565b611260848573ffffffffffffffffffffffffffffffffffffffff166323b872dd86868660405160240161121993929190611c75565b604051602081830303815290604052915060e01b6020820180517bffffffffffffffffffffffffffffffffffffffffffffffffffffffff83818316178352505050506113b1565b50505050565b6112e0838473ffffffffffffffffffffffffffffffffffffffff1663a9059cbb8585604051602401611299929190611cac565b604051602081830303815290604052915060e01b6020820180517bffffffffffffffffffffffffffffffffffffffffffffffffffffffff83818316178352505050506113b1565b505050565b60008060009054906101000a900473ffffffffffffffffffffffffffffffffffffffff169050816000806101000a81548173ffffffffffffffffffffffffffffffffffffffff021916908373ffffffffffffffffffffffffffffffffffffffff1602179055508173ffffffffffffffffffffffffffffffffffffffff168173ffffffffffffffffffffffffffffffffffffffff167f8be0079c531659141344cd1fd0a4f28419497f9722a3daafe3b4186f6b6457e060405160405180910390a35050565b600033905090565b60006113dc828473ffffffffffffffffffffffffffffffffffffffff1661144890919063ffffffff16565b905060008151141580156114015750808060200190518101906113ff9190611cea565b155b1561144357826040517f5274afe700000000000000000000000000000000000000000000000000000000815260040161143a91906118fb565b60405180910390fd5b505050565b60606114568383600061145e565b905092915050565b6060814710156114a557306040517fcd78605900000000000000000000000000000000000000000000000000000000815260040161149c91906118fb565b60405180910390fd5b6000808573ffffffffffffffffffffffffffffffffffffffff1684866040516114ce9190611d88565b60006040518083038185875af1925050503d806000811461150b576040519150601f19603f3d011682016040523d82523d6000602084013e611510565b606091505b509150915061152086838361152b565b925050509392505050565b6060826115405761153b826115ba565b6115b2565b60008251148015611568575060008473ffffffffffffffffffffffffffffffffffffffff163b145b156115aa57836040517f9996b3150000000000000000000000000000000000000000000000000000000081526004016115a191906118fb565b60405180910390fd5b8190506115b3565b5b9392505050565b6000815111156115cd5780518082602001fd5b6040517f1425ea4200000000000000000000000000000000000000000000000000000000815260040160405180910390fd5b6000819050919050565b611612816115ff565b82525050565b600060208201905061162d6000830184611609565b92915050565b600080fd5b600073ffffffffffffffffffffffffffffffffffffffff82169050919050565b600061166382611638565b9050919050565b600061167582611658565b9050919050565b6116858161166a565b811461169057600080fd5b50565b6000813590506116a28161167c565b92915050565b6116b1816115ff565b81146116bc57600080fd5b50565b6000813590506116ce816116a8565b92915050565b60008115159050919050565b6116e9816116d4565b81146116f457600080fd5b50565b600081359050611706816116e0565b92915050565b60008060006060848603121561172557611724611633565b5b600061173386828701611693565b9350506020611744868287016116bf565b9250506040611755868287016116f7565b9150509250925092565b60006020828403121561177557611774611633565b5b6000611783848285016116bf565b91505092915050565b6000819050919050565b60006117b16117ac6117a784611638565b61178c565b611638565b9050919050565b60006117c382611796565b9050919050565b60006117d5826117b8565b9050919050565b6117e5816117ca565b82525050565b600060a08201905061180060008301886117dc565b61180d6020830187611609565b61181a6040830186611609565b6118276060830185611609565b6118346080830184611609565b9695505050505050565b6000806040838503121561185557611854611633565b5b6000611863858286016116bf565b9250506020611874858286016116bf565b9150509250929050565b60008060006060848603121561189757611896611633565b5b60006118a5868287016116bf565b93505060206118b6868287016116bf565b92505060406118c7868287016116f7565b9150509250925092565b60006020820190506118e660008301846117dc565b92915050565b6118f581611658565b82525050565b600060208201905061191060008301846118ec565b92915050565b61191f81611658565b811461192a57600080fd5b50565b60008135905061193c81611916565b92915050565b6000806040838503121561195957611958611633565b5b6000611967858286016116bf565b92505060206119788582860161192d565b9150509250929050565b60006040820190506119976000830185611609565b6119a46020830184611609565b9392505050565b6000602082840312156119c1576119c0611633565b5b60006119cf8482850161192d565b91505092915050565b7f4e487b7100000000000000000000000000000000000000000000000000000000600052601160045260246000fd5b6000611a12826115ff565b9150611a1d836115ff565b9250828201905080821115611a3557611a346119d8565b5b92915050565b6000611a46826115ff565b9150611a51836115ff565b9250828203905081811115611a6957611a686119d8565b5b92915050565b6000611a7a826115ff565b9150611a85836115ff565b9250828202611a93816115ff565b91508282048414831517611aaa57611aa96119d8565b5b5092915050565b7f4e487b7100000000000000000000000000000000000000000000000000000000600052603260045260246000fd5b600082825260208201905092915050565b7f4661726d3a20796f752063616e2774207769746864726177206d6f726520746860008201527f616e206465706f73697400000000000000000000000000000000000000000000602082015250565b6000611b4d602a83611ae0565b9150611b5882611af1565b604082019050919050565b60006020820190508181036000830152611b7c81611b40565b9050919050565b7f4e487b7100000000000000000000000000000000000000000000000000000000600052601260045260246000fd5b6000611bbd826115ff565b9150611bc8836115ff565b925082611bd857611bd7611b83565b5b828204905092915050565b7f4661726d3a20746f6f206c6174652c20746865206661726d2068617320636c6f60008201527f7365642e00000000000000000000000000000000000000000000000000000000602082015250565b6000611c3f602483611ae0565b9150611c4a82611be3565b604082019050919050565b60006020820190508181036000830152611c6e81611c32565b9050919050565b6000606082019050611c8a60008301866118ec565b611c9760208301856118ec565b611ca46040830184611609565b949350505050565b6000604082019050611cc160008301856118ec565b611cce6020830184611609565b9392505050565b600081519050611ce4816116e0565b92915050565b600060208284031215611d0057611cff611633565b5b6000611d0e84828501611cd5565b91505092915050565b600081519050919050565b600081905092915050565b60005b83811015611d4b578082015181840152602081019050611d30565b60008484015250505050565b6000611d6282611d17565b611d6c8185611d22565b9350611d7c818560208601611d2d565b80840191505092915050565b6000611d948284611d57565b91508190509291505056fea2646970667358221220070ed082bc6eba56aab7464c874acefd08b1e1fb379b06b40ae95ab6499c737a64736f6c63430008180033",
  "linkReferences": {},
  "deployedLinkReferences": {}
}